:100000000C945C000C9479000C9479000C947900A9
:100010000C9479000C9479000C9479000C9479007C
:100020000C9479000C9479000C9479000C9479006C
:100030000C9479000C9479000C9479000C9479005C
:100040000C94EC000C9479000C9479000C947900D9
:100050000C9479000C9479000C9479000C9479003C
:100060000C9479000C947900000000080002010053
:100070000003040700000000000000000000000072
:10008000250028002B0000000000240027002A0083
:10009000040404040404040402020202020203032E
:1000A0000303030301020408102040800102040836
:1000B000102001020408102011241FBECFEFD8E049
:1000C000DEBFCDBF11E0A0E0B1E0EEEFF3E002C093
:1000D00005900D92A630B107D9F721E0A6E0B1E076
:1000E00001C01D92A131B207E1F70E9436010C94C4
:1000F000FD010C94000090E0FC01E859FF4F2491B1
:10010000FC01EC55FF4F3491FC01E057FF4FE491A7
:10011000EE23C9F0222339F0233001F1A8F4213075
:1001200019F1223029F1F0E0EE0FFF1FE458FF4FE4
:10013000A591B4918FB7F894EC91611126C03095D8
:100140003E233C938FBF08952730A9F02830C9F093
:10015000243049F7809180008F7D03C0809180001A
:100160008F7780938000DFCF84B58F7784BDDBCF1E
:1001700084B58F7DFBCF8091B0008F778093B000E6
:10018000D2CF8091B0008F7DF9CF3E2BDACF3FB731
:10019000F89480910B0190910C01A0910D01B09108
:1001A0000E0126B5A89B05C02F3F19F00196A11D91
:1001B000B11D3FBFBA2FA92F982F8827BC01CD01B1
:1001C000620F711D811D911D42E0660F771F881F10
:1001D000991F4A95D1F708951F920F920FB60F926B
:1001E00011242F933F938F939F93AF93BF9380914D
:1001F000070190910801A0910901B0910A01309185
:10020000060123E0230F2D3758F50196A11DB11DDE
:10021000209306018093070190930801A0930901A0
:10022000B0930A0180910B0190910C01A0910D01F6
:10023000B0910E010196A11DB11D80930B01909309
:100240000C01A0930D01B0930E01BF91AF919F914E
:100250008F913F912F910F900FBE0F901F90189587
:1002600026E8230F0296A11DB11DD2CF789484B544
:10027000826084BD84B5816084BD85B5826085BDA2
:1002800085B5816085BD80916E00816080936E0030
:100290001092810080918100826080938100809122
:1002A00081008160809381008091800081608093D3
:1002B00080008091B10084608093B1008091B00093
:1002C00081608093B00080917A00846080937A008E
:1002D00080917A00826080937A0080917A008160B8
:1002E00080937A0080917A00806880937A001092DF
:1002F000C100A0E0B1E026E031E08D9190E0FC018A
:10030000EC55FF4F449180579F4FFC018491882307
:1003100099F090E0880F991FFC01EA57FF4FC591B3
:10032000D491FC01E458FF4F859194918FB7F894D4
:10033000E881E42BE8838FBF2A173B07F1F606E03C
:1003400010E090E0E92E90E0F92EC0910F01D091DD
:100350001001FE01E050FF4FD08061E08D2D0E9422
:100360007B000E94C7002B013C018AEF882E912C54
:10037000A12CB12C0E94C700641975098609970940
:10038000683E734081059105A8F3F1E08F1A91084A
:10039000A108B10828EE420E23E0521E611C711C18
:1003A00081149104A104B10429F760E08D2D0E940D
:1003B0007B00CE010196B8010E94E90190931001E3
:1003C00080930F01E114F10409F4BFCF0E940000F3
:1003D000BCCFAA1BBB1B51E107C0AA1FBB1FA6179E
:1003E000B70710F0A61BB70B881F991F5A95A9F7DE
:0E03F00080959095BC01CD010895F894FFCF43
:0603FE000D0C0B0A0908BA
:00000001FF